{
  "transactions": [
    {
      "hash": "0xc87ce7b0de33783376467fdef3e9c69a95d6917796868681f1bcc504a4a90201",
      "transactionType": "CALL",
      "contractName": null,
      "contractAddress": "0x75647dcf6d4a3baa2c65e1b51b4a4bb638fc5e58",
      "function": "initiateCrosschainFlashLoan(uint256,uint256,address,bytes)",
      "arguments": [
        "8453",
        "1000000000000000000",
        "0x75647dCf6d4A3Baa2C65E1b51B4a4bb638fC5E58",
        "0x"
      ],
      "transaction": {
        "from": "0x2bf2e447a5e57a5eef79c3f12ee865b4730e3a21",
        "to": "0x75647dcf6d4a3baa2c65e1b51b4a4bb638fc5e58",
        "gas": "0x1c4dc",
        "value": "0x0",
        "input": "0xb973dcf800000000000000000000000000000000000000000000000000000000000021050000000000000000000000000000000000000000000000000de0b6b3a764000000000000000000000000000075647dcf6d4a3baa2c65e1b51b4a4bb638fc5e5800000000000000000000000000000000000000000000000000000000000000800000000000000000000000000000000000000000000000000000000000000000",
        "nonce": "0x21",
        "chainId": "0xa"
      },
      "additionalContracts": [],
      "isFixedGasLimit": false
    }
  ],
  "receipts": [
    {
      "status": "0x1",
      "cumulativeGasUsed": "0x57fc7c",
      "logs": [
        {
          "address": "0x4200000000000000000000000000000000000006",
          "topics": [
            "0xe1fffcc4923d04b559f4d29a8bfc6cda04eb5b0d3c460751c2402c5c5cc9109c",
            "0x00000000000000000000000067f359de173b6c2bdf0fdba2bbd733690fe0fe9f"
          ],
          "data": "0x0000000000000000000000000000000000000000000000000000000000000000",
          "blockHash": "0x3c778eeeeff779ed4a3d28512a7526c5bc6a81be88efdd0dfbaefbf654fe37b3",
          "blockNumber": "0x8eb8ad8",
          "blockTimestamp": "0x69caef69",
          "transactionHash": "0xc87ce7b0de33783376467fdef3e9c69a95d6917796868681f1bcc504a4a90201",
          "transactionIndex": "0x12",
          "logIndex": "0xb0",
          "removed": false
        },
        {
          "address": "0x32cbd0f4057ab2c6a01344fe72ee53a8ce99478f",
          "topics": [
            "0x382409ac69001e11931a28435afef442cbfd20d9891907e8fa373ba7d351f320",
            "0x0000000000000000000000000000000000000000000000000000000000002105",
            "0x00000000000000000000000067f359de173b6c2bdf0fdba2bbd733690fe0fe9f",
            "0x0000000000000000000000000000000000000000000000000000000000000000"
          ],
          "data": "0x00000000000000000000000067f359de173b6c2bdf0fdba2bbd733690fe0fe9f000000000000000000000000000000000000000000000000000000000000004000000000000000000000000000000000000000000000000000000000000000847cfd6dbc000000000000000000000000420000000000000000000000000000000000000600000000000000000000000075647dcf6d4a3baa2c65e1b51b4a4bb638fc5e5800000000000000000000000075647dcf6d4a3baa2c65e1b51b4a4bb638fc5e580000000000000000000000000000000000000000000000000de0b6b3a764000000000000000000000000000000000000000000000000000000000000",
          "blockHash": "0x3c778eeeeff779ed4a3d28512a7526c5bc6a81be88efdd0dfbaefbf654fe37b3",
          "blockNumber": "0x8eb8ad8",
          "blockTimestamp": "0x69caef69",
          "transactionHash": "0xc87ce7b0de33783376467fdef3e9c69a95d6917796868681f1bcc504a4a90201",
          "transactionIndex": "0x12",
          "logIndex": "0xb1",
          "removed": false
        },
        {
          "address": "0x67f359de173b6c2bdf0fdba2bbd733690fe0fe9f",
          "topics": [
            "0x0247bfe63a1aaa59e073e20b172889babfda8d3273b5798e0e9ac4388e6dd11c",
            "0x0000000000000000000000004200000000000000000000000000000000000006",
            "0x00000000000000000000000075647dcf6d4a3baa2c65e1b51b4a4bb638fc5e58",
            "0x00000000000000000000000075647dcf6d4a3baa2c65e1b51b4a4bb638fc5e58"
          ],
          "data": "0x0000000000000000000000000000000000000000000000000de0b6b3a76400000000000000000000000000000000000000000000000000000000000000002105",
          "blockHash": "0x3c778eeeeff779ed4a3d28512a7526c5bc6a81be88efdd0dfbaefbf654fe37b3",
          "blockNumber": "0x8eb8ad8",
          "blockTimestamp": "0x69caef69",
          "transactionHash": "0xc87ce7b0de33783376467fdef3e9c69a95d6917796868681f1bcc504a4a90201",
          "transactionIndex": "0x12",
          "logIndex": "0xb2",
          "removed": false
        },
        {
          "address": "0x32cbd0f4057ab2c6a01344fe72ee53a8ce99478f",
          "topics": [
            "0x382409ac69001e11931a28435afef442cbfd20d9891907e8fa373ba7d351f320",
            "0x0000000000000000000000000000000000000000000000000000000000002105",
            "0x00000000000000000000000075647dcf6d4a3baa2c65e1b51b4a4bb638fc5e58",
            "0x0000000000000000000000000000000000000000000000000000000000000001"
          ],
          "data": "0x00000000000000000000000075647dcf6d4a3baa2c65e1b51b4a4bb638fc5e58000000000000000000000000000000000000000000000000000000000000004000000000000000000000000000000000000000000000000000000000000000e431301e6dfc615b68bf0b72e3764411dc3a60d74f0f2970fbb1a88188cbb1b9544f5e0c38000000000000000000000000000000000000000000000000000000000000000a0000000000000000000000002bf2e447a5e57a5eef79c3f12ee865b4730e3a210000000000000000000000000000000000000000000000000de0b6b3a764000000000000000000000000000075647dcf6d4a3baa2c65e1b51b4a4bb638fc5e5800000000000000000000000000000000000000000000000000000000000000c0000000000000000000000000000000000000000000000000000000000000000000000000000000000000000000000000000000000000000000000000",
          "blockHash": "0x3c778eeeeff779ed4a3d28512a7526c5bc6a81be88efdd0dfbaefbf654fe37b3",
          "blockNumber": "0x8eb8ad8",
          "blockTimestamp": "0x69caef69",
          "transactionHash": "0xc87ce7b0de33783376467fdef3e9c69a95d6917796868681f1bcc504a4a90201",
          "transactionIndex": "0x12",
          "logIndex": "0xb3",
          "removed": false
        }
      ],
      "logsBloom": "0x20000000100000000000000000020080000000000000000000040000000200000000000000000000000000100000000000000000000000000021000000040000000000000000000000000000000000000000000000040100000000008400000000010000020000000000000000000800000010200000000000000000000000000000000000000000000000000000000000000001002000000000010020000000040000000000000000000000000000000000000000000000000081000010000800000000000004000000000000000000000000000000000000000000000060000000020000000000000000000000000000800000000000400040000000000000",
      "type": "0x2",
      "transactionHash": "0xc87ce7b0de33783376467fdef3e9c69a95d6917796868681f1bcc504a4a90201",
      "transactionIndex": "0x12",
      "blockHash": "0x3c778eeeeff779ed4a3d28512a7526c5bc6a81be88efdd0dfbaefbf654fe37b3",
      "blockNumber": "0x8eb8ad8",
      "gasUsed": "0x147de",
      "effectiveGasPrice": "0x2ec",
      "blobGasUsed": "0x9c40",
      "from": "0x2bf2e447a5e57a5eef79c3f12ee865b4730e3a21",
      "to": "0x75647dcf6d4a3baa2c65e1b51b4a4bb638fc5e58",
      "contractAddress": null,
      "daFootprintGasScalar": "0x190",
      "l1BaseFeeScalar": "0x146b",
      "l1BlobBaseFee": "0x582a55",
      "l1BlobBaseFeeScalar": "0xf79c5",
      "l1Fee": "0x551c5ca0",
      "l1GasPrice": "0x60013a1",
      "l1GasUsed": "0x640"
    }
  ],
  "libraries": [],
  "pending": [],
  "returns": {},
  "timestamp": 1774907240876,
  "chain": 10,
  "commit": "fbfa223"
}