{
  "transactions": [
    {
      "hash": "0xe8499b5d8dfc823b4d13d28145152e01899df9aadd7c80b99e6bf4799e19fd5e",
      "transactionType": "CALL",
      "contractName": null,
      "contractAddress": "0xba5ed099633d3b313e4d5f7bdc1305d3c28ba5ed",
      "function": "deployCreate2(bytes32,bytes)",
      "arguments": [
        "0x86192adb5c990d8714151ec0eb2d7767d35c867add4a59bc860d0ef09cd76ee7",
        "0x60a03461014a57601f6108fc38819003918201601f19168301916001600160401b0383118484101761014f57808492604094855283398101031261014a57610052602061004b83610165565b9201610165565b61005b33610179565b6000546001600160a01b039290339084160361010657828116156100b25761008290610179565b1660805260405161073690816101c6823960805181818160b001528181610307015281816103ac01526105700152f35b60405162461bcd60e51b815260206004820152602660248201527f4f776e61626c653a206e6577206f776e657220697320746865207a65726f206160448201526564647265737360d01b6064820152608490fd5b606460405162461bcd60e51b815260206004820152602060248201527f4f776e61626c653a2063616c6c6572206973206e6f7420746865206f776e65726044820152fd5b600080fd5b634e487b7160e01b600052604160045260246000fd5b51906001600160a01b038216820361014a57565b600080546001600160a01b039283166001600160a01b03198216811783556040519093909116917f8be0079c531659141344cd1fd0a4f28419497f9722a3daafe3b4186f6b6457e091a356fe608060408181526004918236101561001657600080fd5b600092833560e01c918262f8900c14610647575081630900f0101461053857816340c10f19146102ae578163715018a61461024457816383ea6e97146102255781638da5cb5b146101ff578163918f8674146101e257816398f1312e146101c6578163f2fde38b146100d8575063f96dae0a1461009257600080fd5b346100d457816003193601126100d457602090516001600160a01b037f0000000000000000000000000000000000000000000000000000000000000000168152f35b5080fd5b9050346101c25760203660031901126101c2576100f3610663565b6100fb61067e565b6001600160a01b038091169182156101595750600054928273ffffffffffffffffffffffffffffffffffffffff198516176000555192167f8be0079c531659141344cd1fd0a4f28419497f9722a3daafe3b4186f6b6457e0600084a3f35b608490602085519162461bcd60e51b8352820152602660248201527f4f776e61626c653a206e6577206f776e657220697320746865207a65726f206160448201527f64647265737300000000000000000000000000000000000000000000000000006064820152fd5b8280fd5b5050346100d457816003193601126100d4576020905160148152f35b5050346100d457816003193601126100d457602090516103e88152f35b5050346100d457816003193601126100d4576001600160a01b0360209254169051908152f35b5050346100d457816003193601126100d457602090516301e133808152f35b5050346100d457816003193601126100d45761025e61067e565b60006001600160a01b0381549273ffffffffffffffffffffffffffffffffffffffff19841683555192167f8be0079c531659141344cd1fd0a4f28419497f9722a3daafe3b4186f6b6457e08284a3f35b8383346100d457806003193601126100d4576102c8610663565b9260248035946102d661067e565b60015480610393575b506301e133801942116103815784956301e1338095949542016001556001600160a01b0391827f00000000000000000000000000000000000000000000000000000000000000001693843b1561037d57869460449386928a5198899788966340c10f1960e01b885216908601528401525af180156103705761036057505051f35b610369906106d6565b6100d45751f35b50505051903d90823e3d90fd5b8680fd5b50634e487b7160e01b84526011825283fd5b42106104d05783516318160ddd60e01b815260208185817f00000000000000000000000000000000000000000000000000000000000000006001600160a01b03165afa9081156104c6578691610468575b508060001904601411811515166104565760146103e8910204861161040957866102df565b506020608493519262461bcd60e51b8452830152808201527f4d696e744d616e616765723a206d696e7420616d6f756e7420657863656564736044820152630206361760e41b6064820152fd5b634e487b7160e01b8652601184528286fd5b905060203d81116104bf575b601f8101601f1916820167ffffffffffffffff8111838210176104ab5760209183918852810103126104a75751876103e4565b8580fd5b84604187634e487b7160e01b600052526000fd5b503d610474565b85513d88823e3d90fd5b506026906020608494519362461bcd60e51b85528401528201527f4d696e744d616e616765723a206d696e74696e67206e6f74207065726d69747460448201527f65642079657400000000000000000000000000000000000000000000000000006064820152fd5b839150346100d45760203660031901126100d457610554610663565b61055c61067e565b6001600160a01b038091169081156105de577f00000000000000000000000000000000000000000000000000000000000000001691823b156105da579060248492838751958694859363f2fde38b60e01b85528401525af180156105d0576105c357509051f35b6105cc906106d6565b9051f35b83513d84823e3d90fd5b8380fd5b845162461bcd60e51b8152602081850152603460248201527f4d696e744d616e616765723a206d696e74206d616e616765722063616e6e6f7460448201527f20626520746865207a65726f20616464726573730000000000000000000000006064820152608490fd5b8490346100d457816003193601126100d4576020906001548152f35b600435906001600160a01b038216820361067957565b600080fd5b6001600160a01b0360005416330361069257565b606460405162461bcd60e51b815260206004820152602060248201527f4f776e61626c653a2063616c6c6572206973206e6f7420746865206f776e65726044820152fd5b67ffffffffffffffff81116106ea57604052565b634e487b7160e01b600052604160045260246000fdfea264697066735822122056e369f5ef684dbd0cf3a8482dec9a2352767a0fcba02c214cf21a3dc506044964736f6c634300080f00330000000000000000000000002bf2e447a5e57a5eef79c3f12ee865b4730e3a210000000000000000000000004200000000000000000000000000000000000042"
      ],
      "transaction": {
        "from": "0x2bf2e447a5e57a5eef79c3f12ee865b4730e3a21",
        "to": "0xba5ed099633d3b313e4d5f7bdc1305d3c28ba5ed",
        "gas": "0xae879",
        "value": "0x0",
        "input": "0x2630766886192adb5c990d8714151ec0eb2d7767d35c867add4a59bc860d0ef09cd76ee70000000000000000000000000000000000000000000000000000000000000040000000000000000000000000000000000000000000000000000000000000093c60a03461014a57601f6108fc38819003918201601f19168301916001600160401b0383118484101761014f57808492604094855283398101031261014a57610052602061004b83610165565b9201610165565b61005b33610179565b6000546001600160a01b039290339084160361010657828116156100b25761008290610179565b1660805260405161073690816101c6823960805181818160b001528181610307015281816103ac01526105700152f35b60405162461bcd60e51b815260206004820152602660248201527f4f776e61626c653a206e6577206f776e657220697320746865207a65726f206160448201526564647265737360d01b6064820152608490fd5b606460405162461bcd60e51b815260206004820152602060248201527f4f776e61626c653a2063616c6c6572206973206e6f7420746865206f776e65726044820152fd5b600080fd5b634e487b7160e01b600052604160045260246000fd5b51906001600160a01b038216820361014a57565b600080546001600160a01b039283166001600160a01b03198216811783556040519093909116917f8be0079c531659141344cd1fd0a4f28419497f9722a3daafe3b4186f6b6457e091a356fe608060408181526004918236101561001657600080fd5b600092833560e01c918262f8900c14610647575081630900f0101461053857816340c10f19146102ae578163715018a61461024457816383ea6e97146102255781638da5cb5b146101ff578163918f8674146101e257816398f1312e146101c6578163f2fde38b146100d8575063f96dae0a1461009257600080fd5b346100d457816003193601126100d457602090516001600160a01b037f0000000000000000000000000000000000000000000000000000000000000000168152f35b5080fd5b9050346101c25760203660031901126101c2576100f3610663565b6100fb61067e565b6001600160a01b038091169182156101595750600054928273ffffffffffffffffffffffffffffffffffffffff198516176000555192167f8be0079c531659141344cd1fd0a4f28419497f9722a3daafe3b4186f6b6457e0600084a3f35b608490602085519162461bcd60e51b8352820152602660248201527f4f776e61626c653a206e6577206f776e657220697320746865207a65726f206160448201527f64647265737300000000000000000000000000000000000000000000000000006064820152fd5b8280fd5b5050346100d457816003193601126100d4576020905160148152f35b5050346100d457816003193601126100d457602090516103e88152f35b5050346100d457816003193601126100d4576001600160a01b0360209254169051908152f35b5050346100d457816003193601126100d457602090516301e133808152f35b5050346100d457816003193601126100d45761025e61067e565b60006001600160a01b0381549273ffffffffffffffffffffffffffffffffffffffff19841683555192167f8be0079c531659141344cd1fd0a4f28419497f9722a3daafe3b4186f6b6457e08284a3f35b8383346100d457806003193601126100d4576102c8610663565b9260248035946102d661067e565b60015480610393575b506301e133801942116103815784956301e1338095949542016001556001600160a01b0391827f00000000000000000000000000000000000000000000000000000000000000001693843b1561037d57869460449386928a5198899788966340c10f1960e01b885216908601528401525af180156103705761036057505051f35b610369906106d6565b6100d45751f35b50505051903d90823e3d90fd5b8680fd5b50634e487b7160e01b84526011825283fd5b42106104d05783516318160ddd60e01b815260208185817f00000000000000000000000000000000000000000000000000000000000000006001600160a01b03165afa9081156104c6578691610468575b508060001904601411811515166104565760146103e8910204861161040957866102df565b506020608493519262461bcd60e51b8452830152808201527f4d696e744d616e616765723a206d696e7420616d6f756e7420657863656564736044820152630206361760e41b6064820152fd5b634e487b7160e01b8652601184528286fd5b905060203d81116104bf575b601f8101601f1916820167ffffffffffffffff8111838210176104ab5760209183918852810103126104a75751876103e4565b8580fd5b84604187634e487b7160e01b600052526000fd5b503d610474565b85513d88823e3d90fd5b506026906020608494519362461bcd60e51b85528401528201527f4d696e744d616e616765723a206d696e74696e67206e6f74207065726d69747460448201527f65642079657400000000000000000000000000000000000000000000000000006064820152fd5b839150346100d45760203660031901126100d457610554610663565b61055c61067e565b6001600160a01b038091169081156105de577f00000000000000000000000000000000000000000000000000000000000000001691823b156105da579060248492838751958694859363f2fde38b60e01b85528401525af180156105d0576105c357509051f35b6105cc906106d6565b9051f35b83513d84823e3d90fd5b8380fd5b845162461bcd60e51b8152602081850152603460248201527f4d696e744d616e616765723a206d696e74206d616e616765722063616e6e6f7460448201527f20626520746865207a65726f20616464726573730000000000000000000000006064820152608490fd5b8490346100d457816003193601126100d4576020906001548152f35b600435906001600160a01b038216820361067957565b600080fd5b6001600160a01b0360005416330361069257565b606460405162461bcd60e51b815260206004820152602060248201527f4f776e61626c653a2063616c6c6572206973206e6f7420746865206f776e65726044820152fd5b67ffffffffffffffff81116106ea57604052565b634e487b7160e01b600052604160045260246000fdfea264697066735822122056e369f5ef684dbd0cf3a8482dec9a2352767a0fcba02c214cf21a3dc506044964736f6c634300080f00330000000000000000000000002bf2e447a5e57a5eef79c3f12ee865b4730e3a21000000000000000000000000420000000000000000000000000000000000004200000000",
        "nonce": "0x24",
        "chainId": "0xa"
      },
      "additionalContracts": [
        {
          "transactionType": "CREATE2",
          "contractName": "MintManager",
          "address": "0xff85c71f3cc2bd69fc17b913c4c7e36e40ec9518",
          "initCode": "0x60a03461014a57601f6108fc38819003918201601f19168301916001600160401b0383118484101761014f57808492604094855283398101031261014a57610052602061004b83610165565b9201610165565b61005b33610179565b6000546001600160a01b039290339084160361010657828116156100b25761008290610179565b1660805260405161073690816101c6823960805181818160b001528181610307015281816103ac01526105700152f35b60405162461bcd60e51b815260206004820152602660248201527f4f776e61626c653a206e6577206f776e657220697320746865207a65726f206160448201526564647265737360d01b6064820152608490fd5b606460405162461bcd60e51b815260206004820152602060248201527f4f776e61626c653a2063616c6c6572206973206e6f7420746865206f776e65726044820152fd5b600080fd5b634e487b7160e01b600052604160045260246000fd5b51906001600160a01b038216820361014a57565b600080546001600160a01b039283166001600160a01b03198216811783556040519093909116917f8be0079c531659141344cd1fd0a4f28419497f9722a3daafe3b4186f6b6457e091a356fe608060408181526004918236101561001657600080fd5b600092833560e01c918262f8900c14610647575081630900f0101461053857816340c10f19146102ae578163715018a61461024457816383ea6e97146102255781638da5cb5b146101ff578163918f8674146101e257816398f1312e146101c6578163f2fde38b146100d8575063f96dae0a1461009257600080fd5b346100d457816003193601126100d457602090516001600160a01b037f0000000000000000000000000000000000000000000000000000000000000000168152f35b5080fd5b9050346101c25760203660031901126101c2576100f3610663565b6100fb61067e565b6001600160a01b038091169182156101595750600054928273ffffffffffffffffffffffffffffffffffffffff198516176000555192167f8be0079c531659141344cd1fd0a4f28419497f9722a3daafe3b4186f6b6457e0600084a3f35b608490602085519162461bcd60e51b8352820152602660248201527f4f776e61626c653a206e6577206f776e657220697320746865207a65726f206160448201527f64647265737300000000000000000000000000000000000000000000000000006064820152fd5b8280fd5b5050346100d457816003193601126100d4576020905160148152f35b5050346100d457816003193601126100d457602090516103e88152f35b5050346100d457816003193601126100d4576001600160a01b0360209254169051908152f35b5050346100d457816003193601126100d457602090516301e133808152f35b5050346100d457816003193601126100d45761025e61067e565b60006001600160a01b0381549273ffffffffffffffffffffffffffffffffffffffff19841683555192167f8be0079c531659141344cd1fd0a4f28419497f9722a3daafe3b4186f6b6457e08284a3f35b8383346100d457806003193601126100d4576102c8610663565b9260248035946102d661067e565b60015480610393575b506301e133801942116103815784956301e1338095949542016001556001600160a01b0391827f00000000000000000000000000000000000000000000000000000000000000001693843b1561037d57869460449386928a5198899788966340c10f1960e01b885216908601528401525af180156103705761036057505051f35b610369906106d6565b6100d45751f35b50505051903d90823e3d90fd5b8680fd5b50634e487b7160e01b84526011825283fd5b42106104d05783516318160ddd60e01b815260208185817f00000000000000000000000000000000000000000000000000000000000000006001600160a01b03165afa9081156104c6578691610468575b508060001904601411811515166104565760146103e8910204861161040957866102df565b506020608493519262461bcd60e51b8452830152808201527f4d696e744d616e616765723a206d696e7420616d6f756e7420657863656564736044820152630206361760e41b6064820152fd5b634e487b7160e01b8652601184528286fd5b905060203d81116104bf575b601f8101601f1916820167ffffffffffffffff8111838210176104ab5760209183918852810103126104a75751876103e4565b8580fd5b84604187634e487b7160e01b600052526000fd5b503d610474565b85513d88823e3d90fd5b506026906020608494519362461bcd60e51b85528401528201527f4d696e744d616e616765723a206d696e74696e67206e6f74207065726d69747460448201527f65642079657400000000000000000000000000000000000000000000000000006064820152fd5b839150346100d45760203660031901126100d457610554610663565b61055c61067e565b6001600160a01b038091169081156105de577f00000000000000000000000000000000000000000000000000000000000000001691823b156105da579060248492838751958694859363f2fde38b60e01b85528401525af180156105d0576105c357509051f35b6105cc906106d6565b9051f35b83513d84823e3d90fd5b8380fd5b845162461bcd60e51b8152602081850152603460248201527f4d696e744d616e616765723a206d696e74206d616e616765722063616e6e6f7460448201527f20626520746865207a65726f20616464726573730000000000000000000000006064820152608490fd5b8490346100d457816003193601126100d4576020906001548152f35b600435906001600160a01b038216820361067957565b600080fd5b6001600160a01b0360005416330361069257565b606460405162461bcd60e51b815260206004820152602060248201527f4f776e61626c653a2063616c6c6572206973206e6f7420746865206f776e65726044820152fd5b67ffffffffffffffff81116106ea57604052565b634e487b7160e01b600052604160045260246000fdfea264697066735822122056e369f5ef684dbd0cf3a8482dec9a2352767a0fcba02c214cf21a3dc506044964736f6c634300080f00330000000000000000000000002bf2e447a5e57a5eef79c3f12ee865b4730e3a210000000000000000000000004200000000000000000000000000000000000042"
        }
      ],
      "isFixedGasLimit": false
    }
  ],
  "receipts": [
    {
      "status": "0x1",
      "cumulativeGasUsed": "0xb9830f",
      "logs": [
        {
          "address": "0xff85c71f3cc2bd69fc17b913c4c7e36e40ec9518",
          "topics": [
            "0x8be0079c531659141344cd1fd0a4f28419497f9722a3daafe3b4186f6b6457e0",
            "0x0000000000000000000000000000000000000000000000000000000000000000",
            "0x000000000000000000000000ba5ed099633d3b313e4d5f7bdc1305d3c28ba5ed"
          ],
          "data": "0x",
          "blockHash": "0x45da9ddbecb0856ab97f0df0c367a03bea5a9946319462c8211390534698c601",
          "blockNumber": "0x8ec2b41",
          "blockTimestamp": "0x69cc303b",
          "transactionHash": "0xe8499b5d8dfc823b4d13d28145152e01899df9aadd7c80b99e6bf4799e19fd5e",
          "transactionIndex": "0x20",
          "logIndex": "0x134",
          "removed": false
        },
        {
          "address": "0xff85c71f3cc2bd69fc17b913c4c7e36e40ec9518",
          "topics": [
            "0x8be0079c531659141344cd1fd0a4f28419497f9722a3daafe3b4186f6b6457e0",
            "0x000000000000000000000000ba5ed099633d3b313e4d5f7bdc1305d3c28ba5ed",
            "0x0000000000000000000000002bf2e447a5e57a5eef79c3f12ee865b4730e3a21"
          ],
          "data": "0x",
          "blockHash": "0x45da9ddbecb0856ab97f0df0c367a03bea5a9946319462c8211390534698c601",
          "blockNumber": "0x8ec2b41",
          "blockTimestamp": "0x69cc303b",
          "transactionHash": "0xe8499b5d8dfc823b4d13d28145152e01899df9aadd7c80b99e6bf4799e19fd5e",
          "transactionIndex": "0x20",
          "logIndex": "0x135",
          "removed": false
        },
        {
          "address": "0xba5ed099633d3b313e4d5f7bdc1305d3c28ba5ed",
          "topics": [
            "0xb8fda7e00c6b06a2b54e58521bc5894fee35f1090e5a3bb6390bfe2b98b497f7",
            "0x000000000000000000000000ff85c71f3cc2bd69fc17b913c4c7e36e40ec9518",
            "0x7035a12d6c5717d54f4865a968ed2fd98c38d3ae923f720264f3936680023f82"
          ],
          "data": "0x",
          "blockHash": "0x45da9ddbecb0856ab97f0df0c367a03bea5a9946319462c8211390534698c601",
          "blockNumber": "0x8ec2b41",
          "blockTimestamp": "0x69cc303b",
          "transactionHash": "0xe8499b5d8dfc823b4d13d28145152e01899df9aadd7c80b99e6bf4799e19fd5e",
          "transactionIndex": "0x20",
          "logIndex": "0x136",
          "removed": false
        }
      ],
      "logsBloom": "0x00020000000000000000000000000000000000000000000010800000000000000000000014000000000000000000000000000000000040200002000000000000000000000000000000000000000000000001000000000000000000000004000000000000020000000000000000000800000000000000000000000000000000400000000000000004000040000000100000000000000000000000000000000000000080000000000000000000000100000000000000000000000000000000000000000000000000000200200000000000000000102000000000000001000020000000000000000000000000000000000000000000100020000020000000000000",
      "type": "0x2",
      "transactionHash": "0xe8499b5d8dfc823b4d13d28145152e01899df9aadd7c80b99e6bf4799e19fd5e",
      "transactionIndex": "0x20",
      "blockHash": "0x45da9ddbecb0856ab97f0df0c367a03bea5a9946319462c8211390534698c601",
      "blockNumber": "0x8ec2b41",
      "gasUsed": "0x77563",
      "effectiveGasPrice": "0x1e8",
      "blobGasUsed": "0x85e30",
      "from": "0x2bf2e447a5e57a5eef79c3f12ee865b4730e3a21",
      "to": "0xba5ed099633d3b313e4d5f7bdc1305d3c28ba5ed",
      "contractAddress": null,
      "daFootprintGasScalar": "0x190",
      "l1BaseFeeScalar": "0x146b",
      "l1BlobBaseFee": "0x6f91bc",
      "l1BlobBaseFeeScalar": "0xf79c5",
      "l1Fee": "0x5e5b25746",
      "l1GasPrice": "0x7e17116",
      "l1GasUsed": "0x55b1"
    }
  ],
  "libraries": [],
  "pending": [],
  "returns": {},
  "timestamp": 1774989371441,
  "chain": 10,
  "commit": "fbfa223"
}