{
  "transactions": [
    {
      "hash": null,
      "transactionType": "CALL",
      "contractName": null,
      "contractAddress": "0xff85c71f3cc2bd69fc17b913c4c7e36e40ec9518",
      "function": "mint(address,uint256)",
      "arguments": [
        "0x2bF2e447A5e57A5eEf79C3f12Ee865B4730e3a21",
        "1000"
      ],
      "transaction": {
        "from": "0x2bf2e447a5e57a5eef79c3f12ee865b4730e3a21",
        "to": "0xff85c71f3cc2bd69fc17b913c4c7e36e40ec9518",
        "value": "0x0",
        "input": "0x40c10f190000000000000000000000002bf2e447a5e57a5eef79c3f12ee865b4730e3a2100000000000000000000000000000000000000000000000000000000000003e8",
        "nonce": "0x25",
        "chainId": "0xa"
      },
      "additionalContracts": [],
      "isFixedGasLimit": false
    }
  ],
  "receipts": [],
  "libraries": [],
  "pending": [],
  "returns": {},
  "timestamp": 1774990561045,
  "chain": 10,
  "commit": "fbfa223"
}